:1005B90047020100444709050006FFFFFFFFFFFF4F
:1005C9004D4703090008454702074002BBB6D3ADB2
:1005D900CAB9D3C3D7E2C1DECFB5CDB300BBAAC573
:1005E900A9B5E7D7D3D0C5CFA2B9A4B3CC00D5C597
:1005F900BAE7C1D6BAEAB5E4C2ACD0A1B1F90032C2
:10060900303039C4EA3034D4C23130C8D520200062
:0F061900C7EBD1A1D4F1C6E4CBFCB3B5CEBB0087
:100689001539471208400000000000000000000072
:1006990000000000000000114EC7EBD4DA20202032
:1006A90020BAC5CEBBC8A1B3B500115FC7EBD4DA78
:1006B90020202020BAC5CEBBBBB9B3B5001170C488
:1006C900FAB5C4D3E0B6EE3A2020202020D4AA00FF
:0206D900C10559
:10024A00C200C201C202C203C204C2A375892075D8
:10025A0098D0758DFA758BFAD28E758780C2AFC227
:10026A00A4D2A51206DC20000CC204120542920098
:10027A0012077180F120010CC2001200D192011202
:10028A00077180F120020CC2011204BC920212070B
:10029A007180F120030CC2021203A19203120771AA
:1002AA0080F1D2A4C2A57F327E001207752005050F
:1002BA0012000380F8120628C2A4D2A57F027E008B
:1002CA0012077520041DC2031202F99204A20492B5
:1002DA00A37FFF7E001207757FFF7E00120775C29B
:0F02EA00A380E01201957FFF7E0012077580FE52
:10054200D29B9005B9120803C29B9005BA12080308
:100552009005BBE493FF1208069005BCE493FF12DA
:100562000806D29B9005BDE493FF120806E4F50845
:10057200C3E50894097480948050171207A474216B
:100582002508F8A6077821E664476002C322050819
:1005920080DEE4F508C3E508940974809480500E67
:1005A20074212508F8E6FF120806050880E778237B
:0605B200E66002C322D343
:0105B8002220
:1000D100D29B9005BEE493FF120806C29B9005BF18
:1000E100E493FF1208069005C0E493FF12080690FE
:1000F10005C1E493FF1208069005C2E493FF1208BC
:1001010006D29B9005C3E493FF1208069005C4E450
:1001110093FF1208069005C5E493FF1208069005A7
:10012100C6E493FF1208069005C7E493FF12080680
:100131009005C8E493FF1208069005C9E493FF12E5
:100141000806E4F508F5091207A474212509F8A6A3
:10015100077821E664476002C3220509E5097002B8
:100161000508C39405E508940040DC7823E66002A5
:10017100C322E4F508F50974212509F8E6FF120800
:10018100060509E50970020508C39405E508940010
:0301910040E5D373
:010194002248
:1004BC00D29B9005CAE493FF120806C29B9005CB11
:1004CC00E493FF1208069005CCE493FF1208069003
:1004DC0005CDE493FF1208069005CEE493FF1208B5
:1004EC0006D29B9005CFE493FF120806E4F508C3EF
:1004FC00E50894057480948050171207A474212584
:10050C0008F8A6077821E664476002C32205088034
:10051C00DE7823E66002C322E4F508C3E5089405FF
:10052C0074809480500E74212508F8E6FF1208069A
:05053C00050880E7D373
:010541002297
:1003A100D29B9005D0E493FF120806C29B9005D121
:1003B100E493FF1208069005D2E493FF1208069019
:1003C10005D3E493FF120806D29B9005D4E493FF72
:1003D100120806E4F508C3E508941574809480506A
:1003E100171207A474212508F8A6077821E66447A7
:1003F1006002C322050880DE7823E66002C322E49E
:10040100F508C3E508941574809480500E74212575
:1004110008F8E6FF120806050880E77825E6783631
:0E042100F67826E67837F67827E67838F6D3B0
:01042F0022AA
:1002F900D29B7839E6FF120806C29B783AE6FF12CC
:100309000806783BE6FF120806783CE6FF12080665
:10031900D29B783DE6FF120806C29B783EE6FF12A3
:100329000806783FE6FF120806750807C3E5089432
:100339001474809480500E74392508F8E6FF120869
:1003490006050880E7C29B784DE6FF120806E4F52A
:1003590008C3E50894057480948050171207A474A3
:10036900212508F8A6077821E664476002C322051B
:100379000880DEE4F508C3E508940574809480508C
:100389000E74212508F8E6FF120806050880E778AB
:0703990023E66002C322D33A
:0103A000223A
:03080300E493FF7C
:0E080600C299C2A4C2A58F993099FDC2992251
:1007A400E4FFD2A4D2A5C29820981CEFC394C874C5
:1007B4008094805012E4FEEEC3943274809480508E
:1007C400030E80F30F80E1309805AF99C298227F21
:0107D400FF25
:0107D5002201
:040771007F057E0082
:10077500D3EF9400EE940040257D02EDD3940074F0
:100785008094804012E4FCECC394F874809480500B
:0E079500030C80F31D80E4EF1F70D51E80D290
:0107A3002233
:100628007838E6FF7E00640A700476058014EF646B
:10063800054E700E7836E66007167838760A80021E
:10064800D2A3E4FFEFC3940374809480500F7436F0
:100658002FF8E6FE743D2FF8A6060F80E77838E6F7
:10066800FF7E00640A70097836E624806497800D5E
:10067800EF64054E700A7836E624806498784DF663
:01068800224F
:100195007836E6FF75F0648475F00A84E5F024305E
:1001A500787AF6EF75F00A8475F00A84E5F0243064
:1001B50008F67836E675F00A84E5F02430787CF6A2
:1001C500E51075F0648475F00A84E5F02430FF7855
:1001D50052F6E51075F00A8475F00A84E5F02430CE
:1001E500FE08F6E51075F00A84E5F0243008F67887
:1001F50063A60708A60608F67838E6640570167F34
:10020500011208237B007A0079701207327B007A8D
:1002150000794E801B7838E6640A701B7F0112084E
:10022500237B007A0079701207327B007A00795FB0
:100235007D087F901207367FC87E001207757FC83C
:050245007E00020775B8
:0F0814007580FFC2A0D2A1D2A22087FDC2A2226E
:0F082300120814C2A0C2A18F80D2A200C2A222CA
:0F083200120814D2A0C2A18F80D2A200C2A222AB
:1006DC007F301208237F011208237F0C1208237B22
:1006EC00FF7A0579D57D087F801207367A0579E681
:1006FC001207307BFF7A0579F77D087F9012073659
:10070C007BFF7A0679087D087F981207367FC87EB2
:0B071C00001207757FC87E0002077501
:0F0727007F011208237A0679197BFF7D087F88EE
:080736008D0B8B0C8A0D890E5E
:10073E00120823E4F50FE50B75F002A4FFC3E50FD5
:10074E009FE5F06480F87480985017AB0CAA0DA941
:10075E000E850F827583001207D6FF120832050F21
:02076E0080D435
:010770002266
:100003007590FF859010E51014FEE4F508EE651079
:02001300604A41
:10001500E4F509F50A0508D2A4D2A5C299D29B85B3
:1000250010993099FDC299C2A4C2A5C2982098150D
:10003500C3E50A94E8E5099403500A050AE50A7040
:10004500EC050980E8309806AE99C29880BDE508B0
:08005500640A70B7AE10F50853
:0C005D0080B17E04E4F508EE64026067E8
:10006900E4F509F50A0508D2A4D2A5C299C29B787C
:1000790038E6F5993099FDC299C2A4C2A5C2982063
:100089009815C3E50A94E8E5099403500A050AE5B9
:100099000A70EC050980E830981DAE99EEFD7C00E8
:1000A90064027004D205800BED64044C70057E0275
:1000B900120727C29880A4E508640A709E7E02F59B
:0400C90008120727EB
:0300CD00020064CA
:0100D000220D
:03000000020430C7
:0C043000787FE4F6D8FD75818002047727
:1007D600BB010CE58229F582E5833AF583E02250D8
:1007E60006E92582F8E622BBFE06E92582F8E22222
:0D07F600E58229F582E5833AF583E493223C
:10043C0002024AE493A3F8E493A34003F68001F28A
:10044C0008DFF48029E493A3F85407240CC8C333C1
:10045C00C4540F4420C8834004F456800146F6DF90
:10046C00E4800B0102040810204080900689E47E91
:10047C00019360BCA3FF543F30E509541FFEE49385
:10048C00A360010ECF54C025E060A840B8E493A34C
:10049C00FAE493A3F8E493A3C8C582C8CAC583CA77
:1004AC00F0A3C8C582C8CAC583CADFE9DEE780BE2F
:0106DB00001E
:00000001FF
